{
	"ConnectionRelayBubble.sol": {
		"ConnectionRelayBubble": {
			"abi": [
				{
					"inputs": [
						{
							"internalType": "address",
							"name": "user",
							"type": "address"
						},
						{
							"internalType": "uint256",
							"name": "contentId",
							"type": "uint256"
						}
					],
					"name": "getAccessPermissions",
					"outputs": [
						{
							"internalType": "uint256",
							"name": "",
							"type": "uint256"
						}
					],
					"stateMutability": "view",
					"type": "function"
				},
				{
					"inputs": [],
					"name": "owner",
					"outputs": [
						{
							"internalType": "address",
							"name": "",
							"type": "address"
						}
					],
					"stateMutability": "view",
					"type": "function"
				},
				{
					"inputs": [],
					"name": "terminate",
					"outputs": [],
					"stateMutability": "nonpayable",
					"type": "function"
				}
			],
			"devdoc": {
				"kind": "dev",
				"methods": {
					"getAccessPermissions(address,uint256)": {
						"params": {
							"contentId": "the id of the content (file or directory) being requested",
							"user": "the user requesting access"
						}
					}
				},
				"version": 1
			},
			"evm": {
				"assembly": "    /* \"ConnectionRelayBubble.sol\":134:679  contract ConnectionRelayBubble is AccessControlledStorage {... */\n  mstore(0x40, 0x80)\n    /* \"ConnectionRelayBubble.sol\":220:230  msg.sender */\n  caller\n    /* \"ConnectionRelayBubble.sol\":197:230  address public owner = msg.sender */\n  0x00\n  dup1\n  0x0100\n  exp\n  dup2\n  sload\n  dup2\n  0xffffffffffffffffffffffffffffffffffffffff\n  mul\n  not\n  and\n  swap1\n  dup4\n  0xffffffffffffffffffffffffffffffffffffffff\n  and\n  mul\n  or\n  swap1\n  sstore\n  pop\n    /* \"ConnectionRelayBubble.sol\":252:257  false */\n  0x00\n    /* \"ConnectionRelayBubble.sol\":234:257  bool terminated = false */\n  dup1\n  exp(0x0100, 0x14)\n  dup2\n  sload\n  dup2\n  0xff\n  mul\n  not\n  and\n  swap1\n  dup4\n  iszero\n  iszero\n  mul\n  or\n  swap1\n  sstore\n  pop\n    /* \"ConnectionRelayBubble.sol\":134:679  contract ConnectionRelayBubble is AccessControlledStorage {... */\n  callvalue\n  dup1\n  iszero\n  tag_1\n  jumpi\n  0x00\n  dup1\n  revert\ntag_1:\n  pop\n  dataSize(sub_0)\n  dup1\n  dataOffset(sub_0)\n  0x00\n  codecopy\n  0x00\n  return\nstop\n\nsub_0: assembly {\n        /* \"ConnectionRelayBubble.sol\":134:679  contract ConnectionRelayBubble is AccessControlledStorage {... */\n      mstore(0x40, 0x80)\n      callvalue\n      dup1\n      iszero\n      tag_1\n      jumpi\n      0x00\n      dup1\n      revert\n    tag_1:\n      pop\n      jumpi(tag_2, lt(calldatasize, 0x04))\n      shr(0xe0, calldataload(0x00))\n      dup1\n      0x0c08bf88\n      eq\n      tag_3\n      jumpi\n      dup1\n      0x8da5cb5b\n      eq\n      tag_4\n      jumpi\n      dup1\n      0xc48dbf6a\n      eq\n      tag_5\n      jumpi\n    tag_2:\n      0x00\n      dup1\n      revert\n        /* \"ConnectionRelayBubble.sol\":563:676  function terminate() external {... */\n    tag_3:\n      tag_6\n      tag_7\n      jump\t// in\n    tag_6:\n      stop\n        /* \"ConnectionRelayBubble.sol\":197:230  address public owner = msg.sender */\n    tag_4:\n      tag_8\n      tag_9\n      jump\t// in\n    tag_8:\n      mload(0x40)\n      tag_10\n      swap2\n      swap1\n      tag_11\n      jump\t// in\n    tag_10:\n      mload(0x40)\n      dup1\n      swap2\n      sub\n      swap1\n      return\n        /* \"ConnectionRelayBubble.sol\":262:559  function getAccessPermissions( address user, uint256 contentId ) external view override returns (uint256) {... */\n    tag_5:\n      tag_12\n      0x04\n      dup1\n      calldatasize\n      sub\n      dup2\n      add\n      swap1\n      tag_13\n      swap2\n      swap1\n      tag_14\n      jump\t// in\n    tag_13:\n      tag_15\n      jump\t// in\n    tag_12:\n      mload(0x40)\n      tag_16\n      swap2\n      swap1\n      tag_17\n      jump\t// in\n    tag_16:\n      mload(0x40)\n      dup1\n      swap2\n      sub\n      swap1\n      return\n        /* \"ConnectionRelayBubble.sol\":563:676  function terminate() external {... */\n    tag_7:\n        /* \"ConnectionRelayBubble.sol\":621:626  owner */\n      0x00\n      dup1\n      sload\n      swap1\n      0x0100\n      exp\n      swap1\n      div\n      0xffffffffffffffffffffffffffffffffffffffff\n      and\n        /* \"ConnectionRelayBubble.sol\":607:626  msg.sender == owner */\n      0xffffffffffffffffffffffffffffffffffffffff\n      and\n        /* \"ConnectionRelayBubble.sol\":607:617  msg.sender */\n      caller\n        /* \"ConnectionRelayBubble.sol\":607:626  msg.sender == owner */\n      0xffffffffffffffffffffffffffffffffffffffff\n      and\n      eq\n        /* \"ConnectionRelayBubble.sol\":599:648  require(msg.sender == owner, \"permission denied\") */\n      tag_19\n      jumpi\n      mload(0x40)\n      0x08c379a000000000000000000000000000000000000000000000000000000000\n      dup2\n      mstore\n      0x04\n      add\n      tag_20\n      swap1\n      tag_21\n      jump\t// in\n    tag_20:\n      mload(0x40)\n      dup1\n      swap2\n      sub\n      swap1\n      revert\n    tag_19:\n        /* \"ConnectionRelayBubble.sol\":667:671  true */\n      0x01\n        /* \"ConnectionRelayBubble.sol\":654:664  terminated */\n      0x00\n      0x14\n        /* \"ConnectionRelayBubble.sol\":654:671  terminated = true */\n      0x0100\n      exp\n      dup2\n      sload\n      dup2\n      0xff\n      mul\n      not\n      and\n      swap1\n      dup4\n      iszero\n      iszero\n      mul\n      or\n      swap1\n      sstore\n      pop\n        /* \"ConnectionRelayBubble.sol\":563:676  function terminate() external {... */\n      jump\t// out\n        /* \"ConnectionRelayBubble.sol\":197:230  address public owner = msg.sender */\n    tag_9:\n      0x00\n      dup1\n      sload\n      swap1\n      0x0100\n      exp\n      swap1\n      div\n      0xffffffffffffffffffffffffffffffffffffffff\n      and\n      dup2\n      jump\t// out\n        /* \"ConnectionRelayBubble.sol\":262:559  function getAccessPermissions( address user, uint256 contentId ) external view override returns (uint256) {... */\n    tag_15:\n        /* \"ConnectionRelayBubble.sol\":359:366  uint256 */\n      0x00\n        /* \"ConnectionRelayBubble.sol\":378:388  terminated */\n      dup1\n      0x14\n      swap1\n      sload\n      swap1\n      0x0100\n      exp\n      swap1\n      div\n      0xff\n      and\n        /* \"ConnectionRelayBubble.sol\":374:554  if (terminated) return BUBBLE_TERMINATED_BIT;... */\n      iszero\n      tag_23\n      jumpi\n        /* \"AccessControlBits.sol\":767:775  1 << 255 */\n      0x8000000000000000000000000000000000000000000000000000000000000000\n        /* \"ConnectionRelayBubble.sol\":390:418  return BUBBLE_TERMINATED_BIT */\n      swap1\n      pop\n      jump(tag_22)\n        /* \"ConnectionRelayBubble.sol\":374:554  if (terminated) return BUBBLE_TERMINATED_BIT;... */\n    tag_23:\n        /* \"ConnectionRelayBubble.sol\":446:447  0 */\n      0x00\n        /* \"ConnectionRelayBubble.sol\":433:442  contentId */\n      dup3\n        /* \"ConnectionRelayBubble.sol\":433:447  contentId == 0 */\n      eq\n        /* \"ConnectionRelayBubble.sol\":433:464  contentId == 0 && user != owner */\n      dup1\n      iszero\n      tag_25\n      jumpi\n      pop\n        /* \"ConnectionRelayBubble.sol\":459:464  owner */\n      0x00\n      dup1\n      sload\n      swap1\n      0x0100\n      exp\n      swap1\n      div\n      0xffffffffffffffffffffffffffffffffffffffff\n      and\n        /* \"ConnectionRelayBubble.sol\":451:464  user != owner */\n      0xffffffffffffffffffffffffffffffffffffffff\n      and\n        /* \"ConnectionRelayBubble.sol\":451:455  user */\n      dup4\n        /* \"ConnectionRelayBubble.sol\":451:464  user != owner */\n      0xffffffffffffffffffffffffffffffffffffffff\n      and\n      eq\n      iszero\n        /* \"ConnectionRelayBubble.sol\":433:464  contentId == 0 && user != owner */\n    tag_25:\n        /* \"ConnectionRelayBubble.sol\":429:554  if (contentId == 0 && user != owner) return NO_PERMISSIONS;... */\n      iszero\n      tag_26\n      jumpi\n        /* \"AccessControlBits.sol\":1011:1012  0 */\n      0x00\n        /* \"ConnectionRelayBubble.sol\":466:487  return NO_PERMISSIONS */\n      swap1\n      pop\n      jump(tag_22)\n        /* \"ConnectionRelayBubble.sol\":429:554  if (contentId == 0 && user != owner) return NO_PERMISSIONS;... */\n    tag_26:\n        /* \"AccessControlBits.sol\":915:923  1 << 251 */\n      0x0800000000000000000000000000000000000000000000000000000000000000\n        /* \"AccessControlBits.sol\":878:886  1 << 252 */\n      0x1000000000000000000000000000000000000000000000000000000000000000\n        /* \"AccessControlBits.sol\":842:850  1 << 253 */\n      0x2000000000000000000000000000000000000000000000000000000000000000\n        /* \"AccessControlBits.sol\":807:815  1 << 254 */\n      0x4000000000000000000000000000000000000000000000000000000000000000\n        /* \"ConnectionRelayBubble.sol\":505:529  DIRECTORY_BIT | READ_BIT */\n      or\n        /* \"ConnectionRelayBubble.sol\":505:541  DIRECTORY_BIT | READ_BIT | WRITE_BIT */\n      or\n        /* \"ConnectionRelayBubble.sol\":505:554  DIRECTORY_BIT | READ_BIT | WRITE_BIT | APPEND_BIT */\n      or\n        /* \"ConnectionRelayBubble.sol\":498:554  return DIRECTORY_BIT | READ_BIT | WRITE_BIT | APPEND_BIT */\n      swap1\n      pop\n        /* \"ConnectionRelayBubble.sol\":262:559  function getAccessPermissions( address user, uint256 contentId ) external view override returns (uint256) {... */\n    tag_22:\n      swap3\n      swap2\n      pop\n      pop\n      jump\t// out\n        /* \"#utility.yul\":7:133   */\n    tag_28:\n        /* \"#utility.yul\":44:51   */\n      0x00\n        /* \"#utility.yul\":84:126   */\n      0xffffffffffffffffffffffffffffffffffffffff\n        /* \"#utility.yul\":77:82   */\n      dup3\n        /* \"#utility.yul\":73:127   */\n      and\n        /* \"#utility.yul\":62:127   */\n      swap1\n      pop\n        /* \"#utility.yul\":7:133   */\n      swap2\n      swap1\n      pop\n      jump\t// out\n        /* \"#utility.yul\":139:235   */\n    tag_29:\n        /* \"#utility.yul\":176:183   */\n      0x00\n        /* \"#utility.yul\":205:229   */\n      tag_46\n        /* \"#utility.yul\":223:228   */\n      dup3\n        /* \"#utility.yul\":205:229   */\n      tag_28\n      jump\t// in\n    tag_46:\n        /* \"#utility.yul\":194:229   */\n      swap1\n      pop\n        /* \"#utility.yul\":139:235   */\n      swap2\n      swap1\n      pop\n      jump\t// out\n        /* \"#utility.yul\":241:359   */\n    tag_30:\n        /* \"#utility.yul\":328:352   */\n      tag_48\n        /* \"#utility.yul\":346:351   */\n      dup2\n        /* \"#utility.yul\":328:352   */\n      tag_29\n      jump\t// in\n    tag_48:\n        /* \"#utility.yul\":323:326   */\n      dup3\n        /* \"#utility.yul\":316:353   */\n      mstore\n        /* \"#utility.yul\":241:359   */\n      pop\n      pop\n      jump\t// out\n        /* \"#utility.yul\":365:587   */\n    tag_11:\n        /* \"#utility.yul\":458:462   */\n      0x00\n        /* \"#utility.yul\":496:498   */\n      0x20\n        /* \"#utility.yul\":485:494   */\n      dup3\n        /* \"#utility.yul\":481:499   */\n      add\n        /* \"#utility.yul\":473:499   */\n      swap1\n      pop\n        /* \"#utility.yul\":509:580   */\n      tag_50\n        /* \"#utility.yul\":577:578   */\n      0x00\n        /* \"#utility.yul\":566:575   */\n      dup4\n        /* \"#utility.yul\":562:579   */\n      add\n        /* \"#utility.yul\":553:559   */\n      dup5\n        /* \"#utility.yul\":509:580   */\n      tag_30\n      jump\t// in\n    tag_50:\n        /* \"#utility.yul\":365:587   */\n      swap3\n      swap2\n      pop\n      pop\n      jump\t// out\n        /* \"#utility.yul\":674:791   */\n    tag_32:\n        /* \"#utility.yul\":783:784   */\n      0x00\n        /* \"#utility.yul\":780:781   */\n      dup1\n        /* \"#utility.yul\":773:785   */\n      revert\n        /* \"#utility.yul\":920:1042   */\n    tag_34:\n        /* \"#utility.yul\":993:1017   */\n      tag_55\n        /* \"#utility.yul\":1011:1016   */\n      dup2\n        /* \"#utility.yul\":993:1017   */\n      tag_29\n      jump\t// in\n    tag_55:\n        /* \"#utility.yul\":986:991   */\n      dup2\n        /* \"#utility.yul\":983:1018   */\n      eq\n        /* \"#utility.yul\":973:1036   */\n      tag_56\n      jumpi\n        /* \"#utility.yul\":1032:1033   */\n      0x00\n        /* \"#utility.yul\":1029:1030   */\n      dup1\n        /* \"#utility.yul\":1022:1034   */\n      revert\n        /* \"#utility.yul\":973:1036   */\n    tag_56:\n        /* \"#utility.yul\":920:1042   */\n      pop\n      jump\t// out\n        /* \"#utility.yul\":1048:1187   */\n    tag_35:\n        /* \"#utility.yul\":1094:1099   */\n      0x00\n        /* \"#utility.yul\":1132:1138   */\n      dup2\n        /* \"#utility.yul\":1119:1139   */\n      calldataload\n        /* \"#utility.yul\":1110:1139   */\n      swap1\n      pop\n        /* \"#utility.yul\":1148:1181   */\n      tag_58\n        /* \"#utility.yul\":1175:1180   */\n      dup2\n        /* \"#utility.yul\":1148:1181   */\n      tag_34\n      jump\t// in\n    tag_58:\n        /* \"#utility.yul\":1048:1187   */\n      swap3\n      swap2\n      pop\n      pop\n      jump\t// out\n        /* \"#utility.yul\":1193:1270   */\n    tag_36:\n        /* \"#utility.yul\":1230:1237   */\n      0x00\n        /* \"#utility.yul\":1259:1264   */\n      dup2\n        /* \"#utility.yul\":1248:1264   */\n      swap1\n      pop\n        /* \"#utility.yul\":1193:1270   */\n      swap2\n      swap1\n      pop\n      jump\t// out\n        /* \"#utility.yul\":1276:1398   */\n    tag_37:\n        /* \"#utility.yul\":1349:1373   */\n      tag_61\n        /* \"#utility.yul\":1367:1372   */\n      dup2\n        /* \"#utility.yul\":1349:1373   */\n      tag_36\n      jump\t// in\n    tag_61:\n        /* \"#utility.yul\":1342:1347   */\n      dup2\n        /* \"#utility.yul\":1339:1374   */\n      eq\n        /* \"#utility.yul\":1329:1392   */\n      tag_62\n      jumpi\n        /* \"#utility.yul\":1388:1389   */\n      0x00\n        /* \"#utility.yul\":1385:1386   */\n      dup1\n        /* \"#utility.yul\":1378:1390   */\n      revert\n        /* \"#utility.yul\":1329:1392   */\n    tag_62:\n        /* \"#utility.yul\":1276:1398   */\n      pop\n      jump\t// out\n        /* \"#utility.yul\":1404:1543   */\n    tag_38:\n        /* \"#utility.yul\":1450:1455   */\n      0x00\n        /* \"#utility.yul\":1488:1494   */\n      dup2\n        /* \"#utility.yul\":1475:1495   */\n      calldataload\n        /* \"#utility.yul\":1466:1495   */\n      swap1\n      pop\n        /* \"#utility.yul\":1504:1537   */\n      tag_64\n        /* \"#utility.yul\":1531:1536   */\n      dup2\n        /* \"#utility.yul\":1504:1537   */\n      tag_37\n      jump\t// in\n    tag_64:\n        /* \"#utility.yul\":1404:1543   */\n      swap3\n      swap2\n      pop\n      pop\n      jump\t// out\n        /* \"#utility.yul\":1549:2023   */\n    tag_14:\n        /* \"#utility.yul\":1617:1623   */\n      0x00\n        /* \"#utility.yul\":1625:1631   */\n      dup1\n        /* \"#utility.yul\":1674:1676   */\n      0x40\n        /* \"#utility.yul\":1662:1671   */\n      dup4\n        /* \"#utility.yul\":1653:1660   */\n      dup6\n        /* \"#utility.yul\":1649:1672   */\n      sub\n        /* \"#utility.yul\":1645:1677   */\n      slt\n        /* \"#utility.yul\":1642:1761   */\n      iszero\n      tag_66\n      jumpi\n        /* \"#utility.yul\":1680:1759   */\n      tag_67\n      tag_32\n      jump\t// in\n    tag_67:\n        /* \"#utility.yul\":1642:1761   */\n    tag_66:\n        /* \"#utility.yul\":1800:1801   */\n      0x00\n        /* \"#utility.yul\":1825:1878   */\n      tag_68\n        /* \"#utility.yul\":1870:1877   */\n      dup6\n        /* \"#utility.yul\":1861:1867   */\n      dup3\n        /* \"#utility.yul\":1850:1859   */\n      dup7\n        /* \"#utility.yul\":1846:1868   */\n      add\n        /* \"#utility.yul\":1825:1878   */\n      tag_35\n      jump\t// in\n    tag_68:\n        /* \"#utility.yul\":1815:1878   */\n      swap3\n      pop\n        /* \"#utility.yul\":1771:1888   */\n      pop\n        /* \"#utility.yul\":1927:1929   */\n      0x20\n        /* \"#utility.yul\":1953:2006   */\n      tag_69\n        /* \"#utility.yul\":1998:2005   */\n      dup6\n        /* \"#utility.yul\":1989:1995   */\n      dup3\n        /* \"#utility.yul\":1978:1987   */\n      dup7\n        /* \"#utility.yul\":1974:1996   */\n      add\n        /* \"#utility.yul\":1953:2006   */\n      tag_38\n      jump\t// in\n    tag_69:\n        /* \"#utility.yul\":1943:2006   */\n      swap2\n      pop\n        /* \"#utility.yul\":1898:2016   */\n      pop\n        /* \"#utility.yul\":1549:2023   */\n      swap3\n      pop\n      swap3\n      swap1\n      pop\n      jump\t// out\n        /* \"#utility.yul\":2029:2147   */\n    tag_39:\n        /* \"#utility.yul\":2116:2140   */\n      tag_71\n        /* \"#utility.yul\":2134:2139   */\n      dup2\n        /* \"#utility.yul\":2116:2140   */\n      tag_36\n      jump\t// in\n    tag_71:\n        /* \"#utility.yul\":2111:2114   */\n      dup3\n        /* \"#utility.yul\":2104:2141   */\n      mstore\n        /* \"#utility.yul\":2029:2147   */\n      pop\n      pop\n      jump\t// out\n        /* \"#utility.yul\":2153:2375   */\n    tag_17:\n        /* \"#utility.yul\":2246:2250   */\n      0x00\n        /* \"#utility.yul\":2284:2286   */\n      0x20\n        /* \"#utility.yul\":2273:2282   */\n      dup3\n        /* \"#utility.yul\":2269:2287   */\n      add\n        /* \"#utility.yul\":2261:2287   */\n      swap1\n      pop\n        /* \"#utility.yul\":2297:2368   */\n      tag_73\n        /* \"#utility.yul\":2365:2366   */\n      0x00\n        /* \"#utility.yul\":2354:2363   */\n      dup4\n        /* \"#utility.yul\":2350:2367   */\n      add\n        /* \"#utility.yul\":2341:2347   */\n      dup5\n        /* \"#utility.yul\":2297:2368   */\n      tag_39\n      jump\t// in\n    tag_73:\n        /* \"#utility.yul\":2153:2375   */\n      swap3\n      swap2\n      pop\n      pop\n      jump\t// out\n        /* \"#utility.yul\":2381:2550   */\n    tag_40:\n        /* \"#utility.yul\":2465:2476   */\n      0x00\n        /* \"#utility.yul\":2499:2505   */\n      dup3\n        /* \"#utility.yul\":2494:2497   */\n      dup3\n        /* \"#utility.yul\":2487:2506   */\n      mstore\n        /* \"#utility.yul\":2539:2543   */\n      0x20\n        /* \"#utility.yul\":2534:2537   */\n      dup3\n        /* \"#utility.yul\":2530:2544   */\n      add\n        /* \"#utility.yul\":2515:2544   */\n      swap1\n      pop\n        /* \"#utility.yul\":2381:2550   */\n      swap3\n      swap2\n      pop\n      pop\n      jump\t// out\n        /* \"#utility.yul\":2556:2723   */\n    tag_41:\n        /* \"#utility.yul\":2696:2715   */\n      0x7065726d697373696f6e2064656e696564000000000000000000000000000000\n        /* \"#utility.yul\":2692:2693   */\n      0x00\n        /* \"#utility.yul\":2684:2690   */\n      dup3\n        /* \"#utility.yul\":2680:2694   */\n      add\n        /* \"#utility.yul\":2673:2716   */\n      mstore\n        /* \"#utility.yul\":2556:2723   */\n      pop\n      jump\t// out\n        /* \"#utility.yul\":2729:3095   */\n    tag_42:\n        /* \"#utility.yul\":2871:2874   */\n      0x00\n        /* \"#utility.yul\":2892:2959   */\n      tag_77\n        /* \"#utility.yul\":2956:2958   */\n      0x11\n        /* \"#utility.yul\":2951:2954   */\n      dup4\n        /* \"#utility.yul\":2892:2959   */\n      tag_40\n      jump\t// in\n    tag_77:\n        /* \"#utility.yul\":2885:2959   */\n      swap2\n      pop\n        /* \"#utility.yul\":2968:3061   */\n      tag_78\n        /* \"#utility.yul\":3057:3060   */\n      dup3\n        /* \"#utility.yul\":2968:3061   */\n      tag_41\n      jump\t// in\n    tag_78:\n        /* \"#utility.yul\":3086:3088   */\n      0x20\n        /* \"#utility.yul\":3081:3084   */\n      dup3\n        /* \"#utility.yul\":3077:3089   */\n      add\n        /* \"#utility.yul\":3070:3089   */\n      swap1\n      pop\n        /* \"#utility.yul\":2729:3095   */\n      swap2\n      swap1\n      pop\n      jump\t// out\n        /* \"#utility.yul\":3101:3520   */\n    tag_21:\n        /* \"#utility.yul\":3267:3271   */\n      0x00\n        /* \"#utility.yul\":3305:3307   */\n      0x20\n        /* \"#utility.yul\":3294:3303   */\n      dup3\n        /* \"#utility.yul\":3290:3308   */\n      add\n        /* \"#utility.yul\":3282:3308   */\n      swap1\n      pop\n        /* \"#utility.yul\":3354:3363   */\n      dup2\n        /* \"#utility.yul\":3348:3352   */\n      dup2\n        /* \"#utility.yul\":3344:3364   */\n      sub\n        /* \"#utility.yul\":3340:3341   */\n      0x00\n        /* \"#utility.yul\":3329:3338   */\n      dup4\n        /* \"#utility.yul\":3325:3342   */\n      add\n        /* \"#utility.yul\":3318:3365   */\n      mstore\n        /* \"#utility.yul\":3382:3513   */\n      tag_80\n        /* \"#utility.yul\":3508:3512   */\n      dup2\n        /* \"#utility.yul\":3382:3513   */\n      tag_42\n      jump\t// in\n    tag_80:\n        /* \"#utility.yul\":3374:3513   */\n      swap1\n      pop\n        /* \"#utility.yul\":3101:3520   */\n      swap2\n      swap1\n      pop\n      jump\t// out\n\n    auxdata: 0xa264697066735822122073f816c6df1bb9f25b6bbcf6804e44cab1d5d9b30c3cf21123ae913ec27ccf2a64736f6c63430008120033\n}\n",
				"bytecode": {
					"linkReferences": {},
					"object": "6080604052336000806101000a81548173ffffffffffffffffffffffffffffffffffffffff021916908373ffffffffffffffffffffffffffffffffffffffff16021790555060008060146101000a81548160ff02191690831515021790555034801561006a57600080fd5b506104858061007a6000396000f3fe608060405234801561001057600080fd5b50600436106100415760003560e01c80630c08bf88146100465780638da5cb5b14610050578063c48dbf6a1461006e575b600080fd5b61004e61009e565b005b610058610149565b60405161006591906102e6565b60405180910390f35b61008860048036038101906100839190610368565b61016d565b60405161009591906103b7565b60405180910390f35b60008054906101000a900473ffffffffffffffffffffffffffffffffffffffff1673ffffffffffffffffffffffffffffffffffffffff163373ffffffffffffffffffffffffffffffffffffffff161461012c576040517f08c379a00000000000000000000000000000000000000000000000000000000081526004016101239061042f565b60405180910390fd5b6001600060146101000a81548160ff021916908315150217905550565b60008054906101000a900473ffffffffffffffffffffffffffffffffffffffff1681565b60008060149054906101000a900460ff16156101ab577f8000000000000000000000000000000000000000000000000000000000000000905061029f565b600082148015610207575060008054906101000a900473ffffffffffffffffffffffffffffffffffffffff1673ffffffffffffffffffffffffffffffffffffffff168373ffffffffffffffffffffffffffffffffffffffff1614155b15610215576000905061029f565b7f08000000000000000000000000000000000000000000000000000000000000007f10000000000000000000000000000000000000000000000000000000000000007f20000000000000000000000000000000000000000000000000000000000000007f400000000000000000000000000000000000000000000000000000000000000017171790505b92915050565b600073ffffffffffffffffffffffffffffffffffffffff82169050919050565b60006102d0826102a5565b9050919050565b6102e0816102c5565b82525050565b60006020820190506102fb60008301846102d7565b92915050565b600080fd5b61030f816102c5565b811461031a57600080fd5b50565b60008135905061032c81610306565b92915050565b6000819050919050565b61034581610332565b811461035057600080fd5b50565b6000813590506103628161033c565b92915050565b6000806040838503121561037f5761037e610301565b5b600061038d8582860161031d565b925050602061039e85828601610353565b9150509250929050565b6103b181610332565b82525050565b60006020820190506103cc60008301846103a8565b92915050565b600082825260208201905092915050565b7f7065726d697373696f6e2064656e696564000000000000000000000000000000600082015250565b60006104196011836103d2565b9150610424826103e3565b602082019050919050565b600060208201905081810360008301526104488161040c565b905091905056fea264697066735822122073f816c6df1bb9f25b6bbcf6804e44cab1d5d9b30c3cf21123ae913ec27ccf2a64736f6c63430008120033",
					"opcodes": "PUSH1 0x80 PUSH1 0x40 MSTORE CALLER PUSH1 0x0 DUP1 PUSH2 0x100 EXP DUP2 SLOAD DUP2 PUSH20 0xFFFFFFFFFFFFFFFFFFFFFFFFFFFFFFFFFFFFFFFF MUL NOT AND SWAP1 DUP4 PUSH20 0xFFFFFFFFFFFFFFFFFFFFFFFFFFFFFFFFFFFFFFFF AND MUL OR SWAP1 SSTORE POP PUSH1 0x0 DUP1 PUSH1 0x14 PUSH2 0x100 EXP DUP2 SLOAD DUP2 PUSH1 0xFF MUL NOT AND SWAP1 DUP4 ISZERO ISZERO MUL OR SWAP1 SSTORE POP CALLVALUE DUP1 ISZERO PUSH2 0x6A JUMPI PUSH1 0x0 DUP1 REVERT JUMPDEST POP PUSH2 0x485 DUP1 PUSH2 0x7A PUSH1 0x0 CODECOPY PUSH1 0x0 RETURN INVALID PUSH1 0x80 PUSH1 0x40 MSTORE CALLVALUE DUP1 ISZERO PUSH2 0x10 JUMPI PUSH1 0x0 DUP1 REVERT JUMPDEST POP PUSH1 0x4 CALLDATASIZE LT PUSH2 0x41 JUMPI PUSH1 0x0 CALLDATALOAD PUSH1 0xE0 SHR DUP1 PUSH4 0xC08BF88 EQ PUSH2 0x46 JUMPI DUP1 PUSH4 0x8DA5CB5B EQ PUSH2 0x50 JUMPI DUP1 PUSH4 0xC48DBF6A EQ PUSH2 0x6E JUMPI JUMPDEST PUSH1 0x0 DUP1 REVERT JUMPDEST PUSH2 0x4E PUSH2 0x9E JUMP JUMPDEST STOP JUMPDEST PUSH2 0x58 PUSH2 0x149 JUMP JUMPDEST PUSH1 0x40 MLOAD PUSH2 0x65 SWAP2 SWAP1 PUSH2 0x2E6 JUMP JUMPDEST PUSH1 0x40 MLOAD DUP1 SWAP2 SUB SWAP1 RETURN JUMPDEST PUSH2 0x88 PUSH1 0x4 DUP1 CALLDATASIZE SUB DUP2 ADD SWAP1 PUSH2 0x83 SWAP2 SWAP1 PUSH2 0x368 JUMP JUMPDEST PUSH2 0x16D JUMP JUMPDEST PUSH1 0x40 MLOAD PUSH2 0x95 SWAP2 SWAP1 PUSH2 0x3B7 JUMP JUMPDEST PUSH1 0x40 MLOAD DUP1 SWAP2 SUB SWAP1 RETURN JUMPDEST PUSH1 0x0 DUP1 SLOAD SWAP1 PUSH2 0x100 EXP SWAP1 DIV PUSH20 0xFFFFFFFFFFFFFFFFFFFFFFFFFFFFFFFFFFFFFFFF AND PUSH20 0xFFFFFFFFFFFFFFFFFFFFFFFFFFFFFFFFFFFFFFFF AND CALLER PUSH20 0xFFFFFFFFFFFFFFFFFFFFFFFFFFFFFFFFFFFFFFFF AND EQ PUSH2 0x12C JUMPI PUSH1 0x40 MLOAD PUSH32 0x8C379A000000000000000000000000000000000000000000000000000000000 DUP2 MSTORE PUSH1 0x4 ADD PUSH2 0x123 SWAP1 PUSH2 0x42F JUMP JUMPDEST PUSH1 0x40 MLOAD DUP1 SWAP2 SUB SWAP1 REVERT JUMPDEST PUSH1 0x1 PUSH1 0x0 PUSH1 0x14 PUSH2 0x100 EXP DUP2 SLOAD DUP2 PUSH1 0xFF MUL NOT AND SWAP1 DUP4 ISZERO ISZERO MUL OR SWAP1 SSTORE POP JUMP JUMPDEST PUSH1 0x0 DUP1 SLOAD SWAP1 PUSH2 0x100 EXP SWAP1 DIV PUSH20 0xFFFFFFFFFFFFFFFFFFFFFFFFFFFFFFFFFFFFFFFF AND DUP2 JUMP JUMPDEST PUSH1 0x0 DUP1 PUSH1 0x14 SWAP1 SLOAD SWAP1 PUSH2 0x100 EXP SWAP1 DIV PUSH1 0xFF AND ISZERO PUSH2 0x1AB JUMPI PUSH32 0x8000000000000000000000000000000000000000000000000000000000000000 SWAP1 POP PUSH2 0x29F JUMP JUMPDEST PUSH1 0x0 DUP3 EQ DUP1 ISZERO PUSH2 0x207 JUMPI POP PUSH1 0x0 DUP1 SLOAD SWAP1 PUSH2 0x100 EXP SWAP1 DIV PUSH20 0xFFFFFFFFFFFFFFFFFFFFFFFFFFFFFFFFFFFFFFFF AND PUSH20 0xFFFFFFFFFFFFFFFFFFFFFFFFFFFFFFFFFFFFFFFF AND DUP4 PUSH20 0xFFFFFFFFFFFFFFFFFFFFFFFFFFFFFFFFFFFFFFFF AND EQ ISZERO JUMPDEST ISZERO PUSH2 0x215 JUMPI PUSH1 0x0 SWAP1 POP PUSH2 0x29F JUMP JUMPDEST PUSH32 0x800000000000000000000000000000000000000000000000000000000000000 PUSH32 0x1000000000000000000000000000000000000000000000000000000000000000 PUSH32 0x2000000000000000000000000000000000000000000000000000000000000000 PUSH32 0x4000000000000000000000000000000000000000000000000000000000000000 OR OR OR SWAP1 POP JUMPDEST SWAP3 SWAP2 POP POP JUMP JUMPDEST PUSH1 0x0 PUSH20 0xFFFFFFFFFFFFFFFFFFFFFFFFFFFFFFFFFFFFFFFF DUP3 AND SWAP1 POP SWAP2 SWAP1 POP JUMP JUMPDEST PUSH1 0x0 PUSH2 0x2D0 DUP3 PUSH2 0x2A5 JUMP JUMPDEST SWAP1 POP SWAP2 SWAP1 POP JUMP JUMPDEST PUSH2 0x2E0 DUP2 PUSH2 0x2C5 JUMP JUMPDEST DUP3 MSTORE POP POP JUMP JUMPDEST PUSH1 0x0 PUSH1 0x20 DUP3 ADD SWAP1 POP PUSH2 0x2FB PUSH1 0x0 DUP4 ADD DUP5 PUSH2 0x2D7 JUMP JUMPDEST SWAP3 SWAP2 POP POP JUMP JUMPDEST PUSH1 0x0 DUP1 REVERT JUMPDEST PUSH2 0x30F DUP2 PUSH2 0x2C5 JUMP JUMPDEST DUP2 EQ PUSH2 0x31A JUMPI PUSH1 0x0 DUP1 REVERT JUMPDEST POP JUMP JUMPDEST PUSH1 0x0 DUP2 CALLDATALOAD SWAP1 POP PUSH2 0x32C DUP2 PUSH2 0x306 JUMP JUMPDEST SWAP3 SWAP2 POP POP JUMP JUMPDEST PUSH1 0x0 DUP2 SWAP1 POP SWAP2 SWAP1 POP JUMP JUMPDEST PUSH2 0x345 DUP2 PUSH2 0x332 JUMP JUMPDEST DUP2 EQ PUSH2 0x350 JUMPI PUSH1 0x0 DUP1 REVERT JUMPDEST POP JUMP JUMPDEST PUSH1 0x0 DUP2 CALLDATALOAD SWAP1 POP PUSH2 0x362 DUP2 PUSH2 0x33C JUMP JUMPDEST SWAP3 SWAP2 POP POP JUMP JUMPDEST PUSH1 0x0 DUP1 PUSH1 0x40 DUP4 DUP6 SUB SLT ISZERO PUSH2 0x37F JUMPI PUSH2 0x37E PUSH2 0x301 JUMP JUMPDEST JUMPDEST PUSH1 0x0 PUSH2 0x38D DUP6 DUP3 DUP7 ADD PUSH2 0x31D JUMP JUMPDEST SWAP3 POP POP PUSH1 0x20 PUSH2 0x39E DUP6 DUP3 DUP7 ADD PUSH2 0x353 JUMP JUMPDEST SWAP2 POP POP SWAP3 POP SWAP3 SWAP1 POP JUMP JUMPDEST PUSH2 0x3B1 DUP2 PUSH2 0x332 JUMP JUMPDEST DUP3 MSTORE POP POP JUMP JUMPDEST PUSH1 0x0 PUSH1 0x20 DUP3 ADD SWAP1 POP PUSH2 0x3CC PUSH1 0x0 DUP4 ADD DUP5 PUSH2 0x3A8 JUMP JUMPDEST SWAP3 SWAP2 POP POP JUMP JUMPDEST PUSH1 0x0 DUP3 DUP3 MSTORE PUSH1 0x20 DUP3 ADD SWAP1 POP SWAP3 SWAP2 POP POP JUMP JUMPDEST PUSH32 0x7065726D697373696F6E2064656E696564000000000000000000000000000000 PUSH1 0x0 DUP3 ADD MSTORE POP JUMP JUMPDEST PUSH1 0x0 PUSH2 0x419 PUSH1 0x11 DUP4 PUSH2 0x3D2 JUMP JUMPDEST SWAP2 POP PUSH2 0x424 DUP3 PUSH2 0x3E3 JUMP JUMPDEST PUSH1 0x20 DUP3 ADD SWAP1 POP SWAP2 SWAP1 POP JUMP JUMPDEST PUSH1 0x0 PUSH1 0x20 DUP3 ADD SWAP1 POP DUP2 DUP2 SUB PUSH1 0x0 DUP4 ADD MSTORE PUSH2 0x448 DUP2 PUSH2 0x40C JUMP JUMPDEST SWAP1 POP SWAP2 SWAP1 POP JUMP INVALID LOG2 PUSH5 0x6970667358 0x22 SLT KECCAK256 PUSH20 0xF816C6DF1BB9F25B6BBCF6804E44CAB1D5D9B30C EXTCODECOPY CALLCODE GT 0x23 0xAE SWAP2 RETURNDATACOPY 0xC2 PUSH29 0xCF2A64736F6C6343000812003300000000000000000000000000000000 "
				},
				"gasEstimates": {
					"creation": {
						"codeDepositCost": "231400",
						"executionCost": "48858",
						"totalCost": "280258"
					},
					"external": {
						"getAccessPermissions(address,uint256)": "infinite",
						"owner()": "2511",
						"terminate()": "26606"
					}
				},
				"methodIdentifiers": {
					"getAccessPermissions(address,uint256)": "c48dbf6a",
					"owner()": "8da5cb5b",
					"terminate()": "0c08bf88"
				}
			},
			"storageLayout": {
				"storage": [
					{
						"astId": 74,
						"contract": "ConnectionRelayBubble.sol:ConnectionRelayBubble",
						"label": "owner",
						"offset": 0,
						"slot": "0",
						"type": "t_address"
					},
					{
						"astId": 77,
						"contract": "ConnectionRelayBubble.sol:ConnectionRelayBubble",
						"label": "terminated",
						"offset": 20,
						"slot": "0",
						"type": "t_bool"
					}
				],
				"types": {
					"t_address": {
						"encoding": "inplace",
						"label": "address",
						"numberOfBytes": "20"
					},
					"t_bool": {
						"encoding": "inplace",
						"label": "bool",
						"numberOfBytes": "1"
					}
				}
			},
			"userdoc": {
				"kind": "user",
				"methods": {
					"getAccessPermissions(address,uint256)": {
						"notice": "Provides the access permissions for off-chain content controlled by this contract.  An  off-chain storage service calls this method to obtain a specific user's permissions for  accessing a given file or directory.  The method must return a bit field, with POSIX-like  bits for terminated, directory, read, write, append and execute (tdrwax).  See AccessControlBits.sol for a complete definition of the bit field returned by this method.  Note, the following content IDs are reserved:    CID  Purpose   ---  ------------------------------------------------------------------------------------------   0    The root of the bubble itself.  Any user with write permission to id 0 can construct the         bubble on an off-chain storage service.  Any user with read permission can list the        contents of the bubble's root directory.  ID 0 is always considered a directory and so the         Directory Bit permission returned by this contract is ignored.   "
					}
				},
				"version": 1
			}
		}
	}
}